:100000006CC084C083C082C09EC080C07FC07EC0E0
:100010007DC07CC07BC07AC079C078C077C0000149
:100020000203030405060708090A0B0C0D0E0F1046
:10003000111213141516171819191A1B1C1D1E1F3F
:1000400020212223242425262728292A2B2C2D2D44
:100050002E2F30313233343536373738393A3B3C4E
:100060003D3E3F4142434445464748494A4B4D4E39
:100070004F50515254555657585A5B5C5D5F606102
:100080006364656768696B6C6D6F707273757677A2
:10009000797A7C7D7F8082838587888A8B8D8E901C
:1000A00092939597989A9C9D9FA1A2A4A6A8A9AB6C
:1000B000ADAFB0B2B4B6B8BABBBDBFC1C3C5C7C996
:1000C000CBCDCFD1D3D5D7D9DBDDDFE1E3E5E7E990
:1000D000EBEDEFF1F4F6F8FAFCFF11241FBECFEDC3
:1000E000CDBF10E0A0E6B0E0E8E6F3E002C0059086
:1000F0000D92A037B107D9F710E0A0E7B0E001C03A
:100100001D92A737B107E1F786D02CC179CFE091D6
:1001100070008E2F880F880F80937000B29B02C0F2
:1001200020E001C022E096B391FBEE27E0F991E0D8
:10013000E927E22BE82BE0937000EF70F0E0E05A43
:10014000FF4F808108951F920F920FB60F921124D6
:100150002F933F934F935F936F937F938F939F93CF
:10016000AF93BF93EF93FF9360917300709174000E
:10017000809175009091760025E030E040E050E0FD
:10018000CFD0672B682B692BD9F4909172008091A6
:100190007100891720F48E3F10F48F5F05C0981707
:1001A00028F4882319F081508093710080917100A8
:1001B00089BD882321F083B7816083BF01C013BE4E
:1001C0008091730090917400A0917500B0917600B9
:1001D0000196A11DB11D8093730090937400A093AC
:1001E0007500B0937600FF91EF91BF91AF919F9111
:1001F0008F917F916F915F914F913F912F910F90D0
:100200000FBE0F901F90189589B7846089BF80B783
:10021000866080BF0895F8DF789419BCB89A8AB5D3
:1002200083688ABD83B7816083BF19BC13BE00E0B9
:1002300010E0C0E06CDFC80F83E08C0F8730D0F394
:10024000C7FDC82FC595C5954091730050917400A6
:1002500060917500709176004C195D096E097F09F7
:100260008C2F992787FD90954431510561057105C3
:1002700018F46AE070E013C040917300509174006C
:1002800060917500709176004C195D096E097F09C7
:100290004E3151056105710520F465E070E02FD005
:1002A00013C040917300509174006091750070917B
:1002B00076004C195D096E097F09483251056105C8
:1002C000710510F4880F991F080F191F0C3B1105B9
:1002D0002CF417FF05C000E010E002C00BEB10E0AB
:1002E000F801E25EFF4FE491E0937200C09073006A
:1002F000D0907400E0907500F09076009ACF0024C2
:10030000552704C0080E591F880F991F009729F020
:1003100076956795B8F37105B9F7802D952F0895F7
:10032000A1E21A2EAA1BBB1BFD010DC0AA1FBB1FF9
:10033000EE1FFF1FA217B307E407F50720F0A21B6B
:10034000B30BE40BF50B661F771F881F991F1A94D8
:1003500069F760957095809590959B01AC01BD0102
:08036000CF010895F894FFCFCE
:1003680000FF0100010000FFFF0000010001FF0085
:00000001FF
